{
  "contractName": "Dice",
  "abi": [
    {
      "constant": true,
      "inputs": [],
      "name": "getBankroll",
      "outputs": [
        {
          "name": "",
          "type": "uint256"
        }
      ],
      "payable": false,
      "stateMutability": "view",
      "type": "function"
    },
    {
      "constant": false,
      "inputs": [],
      "name": "bet",
      "outputs": [],
      "payable": false,
      "stateMutability": "nonpayable",
      "type": "function"
    },
    {
      "constant": true,
      "inputs": [
        {
          "name": "currentInvestor",
          "type": "address"
        }
      ],
      "name": "getProfitShare",
      "outputs": [
        {
          "name": "",
          "type": "uint256"
        }
      ],
      "payable": false,
      "stateMutability": "view",
      "type": "function"
    },
    {
      "constant": true,
      "inputs": [],
      "name": "numInvestors",
      "outputs": [
        {
          "name": "",
          "type": "uint256"
        }
      ],
      "payable": false,
      "stateMutability": "view",
      "type": "function"
    },
    {
      "constant": true,
      "inputs": [],
      "name": "maxWin",
      "outputs": [
        {
          "name": "",
          "type": "uint256"
        }
      ],
      "payable": false,
      "stateMutability": "view",
      "type": "function"
    },
    {
      "constant": true,
      "inputs": [],
      "name": "emergencyWithdrawalRatio",
      "outputs": [
        {
          "name": "",
          "type": "uint256"
        }
      ],
      "payable": false,
      "stateMutability": "view",
      "type": "function"
    },
    {
      "constant": false,
      "inputs": [
        {
          "name": "myid",
          "type": "bytes32"
        },
        {
          "name": "result",
          "type": "string"
        }
      ],
      "name": "__callback",
      "outputs": [],
      "payable": false,
      "stateMutability": "nonpayable",
      "type": "function"
    },
    {
      "constant": true,
      "inputs": [],
      "name": "investorsLoses",
      "outputs": [
        {
          "name": "",
          "type": "uint256"
        }
      ],
      "payable": false,
      "stateMutability": "view",
      "type": "function"
    },
    {
      "constant": false,
      "inputs": [
        {
          "name": "myid",
          "type": "bytes32"
        },
        {
          "name": "result",
          "type": "string"
        },
        {
          "name": "proof",
          "type": "bytes"
        }
      ],
      "name": "__callback",
      "outputs": [],
      "payable": false,
      "stateMutability": "nonpayable",
      "type": "function"
    },
    {
      "constant": true,
      "inputs": [],
      "name": "isStopped",
      "outputs": [
        {
          "name": "",
          "type": "bool"
        }
      ],
      "payable": false,
      "stateMutability": "view",
      "type": "function"
    },
    {
      "constant": true,
      "inputs": [
        {
          "name": "",
          "type": "uint256"
        }
      ],
      "name": "investors",
      "outputs": [
        {
          "name": "investorAddress",
          "type": "address"
        },
        {
          "name": "amountInvested",
          "type": "uint256"
        },
        {
          "name": "votedForEmergencyWithdrawal",
          "type": "bool"
        }
      ],
      "payable": false,
      "stateMutability": "view",
      "type": "function"
    },
    {
      "constant": true,
      "inputs": [],
      "name": "searchSmallestInvestor",
      "outputs": [
        {
          "name": "",
          "type": "uint256"
        }
      ],
      "payable": false,
      "stateMutability": "view",
      "type": "function"
    },
    {
      "constant": true,
      "inputs": [],
      "name": "divestFee",
      "outputs": [
        {
          "name": "",
          "type": "uint256"
        }
      ],
      "payable": false,
      "stateMutability": "view",
      "type": "function"
    },
    {
      "constant": true,
      "inputs": [],
      "name": "proposedWithdrawal",
      "outputs": [
        {
          "name": "toAddress",
          "type": "address"
        },
        {
          "name": "atTime",
          "type": "uint256"
        }
      ],
      "payable": false,
      "stateMutability": "view",
      "type": "function"
    },
    {
      "constant": true,
      "inputs": [],
      "name": "investorsProfit",
      "outputs": [
        {
          "name": "",
          "type": "uint256"
        }
      ],
      "payable": false,
      "stateMutability": "view",
      "type": "function"
    },
    {
      "constant": true,
      "inputs": [
        {
          "name": "",
          "type": "address"
        }
      ],
      "name": "investorIDs",
      "outputs": [
        {
          "name": "",
          "type": "uint256"
        }
      ],
      "payable": false,
      "stateMutability": "view",
      "type": "function"
    },
    {
      "constant": true,
      "inputs": [],
      "name": "getMinInvestment",
      "outputs": [
        {
          "name": "",
          "type": "uint256"
        }
      ],
      "payable": false,
      "stateMutability": "view",
      "type": "function"
    },
    {
      "constant": true,
      "inputs": [],
      "name": "minBet",
      "outputs": [
        {
          "name": "",
          "type": "uint256"
        }
      ],
      "payable": false,
      "stateMutability": "view",
      "type": "function"
    },
    {
      "constant": true,
      "inputs": [],
      "name": "pwin",
      "outputs": [
        {
          "name": "",
          "type": "uint256"
        }
      ],
      "payable": false,
      "stateMutability": "view",
      "type": "function"
    },
    {
      "constant": true,
      "inputs": [],
      "name": "edge",
      "outputs": [
        {
          "name": "",
          "type": "uint256"
        }
      ],
      "payable": false,
      "stateMutability": "view",
      "type": "function"
    },
    {
      "constant": true,
      "inputs": [],
      "name": "maxInvestors",
      "outputs": [
        {
          "name": "",
          "type": "uint256"
        }
      ],
      "payable": false,
      "stateMutability": "view",
      "type": "function"
    },
    {
      "constant": true,
      "inputs": [],
      "name": "invested",
      "outputs": [
        {
          "name": "",
          "type": "uint256"
        }
      ],
      "payable": false,
      "stateMutability": "view",
      "type": "function"
    },
    {
      "constant": true,
      "inputs": [],
      "name": "amountWagered",
      "outputs": [
        {
          "name": "",
          "type": "uint256"
        }
      ],
      "payable": false,
      "stateMutability": "view",
      "type": "function"
    },
    {
      "constant": true,
      "inputs": [],
      "name": "houseEdge",
      "outputs": [
        {
          "name": "",
          "type": "uint256"
        }
      ],
      "payable": false,
      "stateMutability": "view",
      "type": "function"
    },
    {
      "constant": true,
      "inputs": [
        {
          "name": "currentInvestor",
          "type": "address"
        }
      ],
      "name": "getLosesShare",
      "outputs": [
        {
          "name": "",
          "type": "uint256"
        }
      ],
      "payable": false,
      "stateMutability": "view",
      "type": "function"
    },
    {
      "constant": true,
      "inputs": [
        {
          "name": "currentInvestor",
          "type": "address"
        }
      ],
      "name": "getBalance",
      "outputs": [
        {
          "name": "",
          "type": "uint256"
        }
      ],
      "payable": false,
      "stateMutability": "view",
      "type": "function"
    },
    {
      "inputs": [
        {
          "name": "pwinInitial",
          "type": "uint256"
        },
        {
          "name": "edgeInitial",
          "type": "uint256"
        },
        {
          "name": "maxWinInitial",
          "type": "uint256"
        },
        {
          "name": "minBetInitial",
          "type": "uint256"
        },
        {
          "name": "maxInvestorsInitial",
          "type": "uint256"
        },
        {
          "name": "houseEdgeInitial",
          "type": "uint256"
        },
        {
          "name": "divestFeeInitial",
          "type": "uint256"
        },
        {
          "name": "emergencyWithdrawalRatioInitial",
          "type": "uint256"
        }
      ],
      "payable": false,
      "stateMutability": "nonpayable",
      "type": "constructor"
    },
    {
      "payable": false,
      "stateMutability": "nonpayable",
      "type": "fallback"
    },
    {
      "anonymous": false,
      "inputs": [
        {
          "indexed": false,
          "name": "playerAddress",
          "type": "address"
        },
        {
          "indexed": false,
          "name": "numberRolled",
          "type": "uint256"
        },
        {
          "indexed": false,
          "name": "amountWon",
          "type": "uint256"
        }
      ],
      "name": "BetWon",
      "type": "event"
    },
    {
      "anonymous": false,
      "inputs": [
        {
          "indexed": false,
          "name": "playerAddress",
          "type": "address"
        },
        {
          "indexed": false,
          "name": "numberRolled",
          "type": "uint256"
        }
      ],
      "name": "BetLost",
      "type": "event"
    },
    {
      "anonymous": false,
      "inputs": [],
      "name": "EmergencyWithdrawalProposed",
      "type": "event"
    },
    {
      "anonymous": false,
      "inputs": [
        {
          "indexed": false,
          "name": "withdrawalAddress",
          "type": "address"
        }
      ],
      "name": "EmergencyWithdrawalFailed",
      "type": "event"
    },
    {
      "anonymous": false,
      "inputs": [
        {
          "indexed": false,
          "name": "withdrawalAddress",
          "type": "address"
        },
        {
          "indexed": false,
          "name": "amountWithdrawn",
          "type": "uint256"
        }
      ],
      "name": "EmergencyWithdrawalSucceeded",
      "type": "event"
    },
    {
      "anonymous": false,
      "inputs": [
        {
          "indexed": false,
          "name": "receiver",
          "type": "address"
        },
        {
          "indexed": false,
          "name": "amount",
          "type": "uint256"
        }
      ],
      "name": "FailedSend",
      "type": "event"
    },
    {
      "anonymous": false,
      "inputs": [],
      "name": "ValueIsTooBig",
      "type": "event"
    }
  ],
  "bytecode": "0x606060405261138860055560c8600655606460075566038d7ea4c6800060085560056009556032600a556032600b55605a600c556161a8600d5560006010556000601155600060185560006019556000601a5534156200005e57600080fd5b60405161010080620038d083398101604052808051906020019091908051906020019091908051906020019091908051906020019091908051906020019091908051906020019091908051906020019091908051906020019091905050736f485c8bf6fc43ea212e93bbf8ce046c7f1cb4756000806101000a81548173ffffffffffffffffffffffffffffffffffffffff021916908373ffffffffffffffffffffffffffffffffffffffff1602179055506200017660017f01000000000000000000000000000000000000000000000000000000000000000260107f010000000000000000000000000000000000000000000000000000000000000002176200023e64010000000002620027ea176401000000009004565b876005819055508660068190555085600781905550846008819055508360098190555082600a8190555081600b8190555080600c8190555033601260006101000a81548173ffffffffffffffffffffffffffffffffffffffff021916908373ffffffffffffffffffffffffffffffffffffffff16021790555033601360006101000a81548173ffffffffffffffffffffffffffffffffffffffff021916908373ffffffffffffffffffffffffffffffffffffffff160217905550505050505050505062000c2c565b60008060009054906101000a900473ffffffffffffffffffffffffffffffffffffffff1673ffffffffffffffffffffffffffffffffffffffff161480620002c457506000620002c26000809054906101000a900473ffffffffffffffffffffffffffffffffffffffff16620005c56401000000000262001f30176401000000009004565b145b15620002ec57620002ea6000620005d06401000000000262001f3b176401000000009004565b505b6000809054906101000a900473ffffffffffffffffffffffffffffffffffffffff1673ffffffffffffffffffffffffffffffffffffffff166338cc48316000604051602001526040518163ffffffff167c0100000000000000000000000000000000000000000000000000000000028152600401602060405180830381600087803b15156200037a57600080fd5b6102c65a03f115156200038c57600080fd5b5050506040518051905073ffffffffffffffffffffffffffffffffffffffff16600160009054906101000a900473ffffffffffffffffffffffffffffffffffffffff1673ffffffffffffffffffffffffffffffffffffffff16141515620004d8576000809054906101000a900473ffffffffffffffffffffffffffffffffffffffff1673ffffffffffffffffffffffffffffffffffffffff166338cc48316000604051602001526040518163ffffffff167c0100000000000000000000000000000000000000000000000000000000028152600401602060405180830381600087803b15156200047b57600080fd5b6102c65a03f115156200048d57600080fd5b50505060405180519050600160006101000a81548173ffffffffffffffffffffffffffffffffffffffff021916908373ffffffffffffffffffffffffffffffffffffffff1602179055505b600160009054906101000a900473ffffffffffffffffffffffffffffffffffffffff1673ffffffffffffffffffffffffffffffffffffffff1663688dcfd7826040518263ffffffff167c010000000000000000000000000000000000000000000000000000000002815260040180827effffffffffffffffffffffffffffffffffffffffffffffffffffffffffffff19167effffffffffffffffffffffffffffffffffffffffffffffffffffffffffffff19168152602001915050600060405180830381600087803b1515620005ad57600080fd5b6102c65a03f11515620005bf57600080fd5b50505050565b6000813b9050919050565b60008062000606731d3b2638a7cc9f2cb3d298a3da7a90b67e5506ed620005c56401000000000262001f30176401000000009004565b1115620006bf57731d3b2638a7cc9f2cb3d298a3da7a90b67e5506ed6000806101000a81548173ffffffffffffffffffffffffffffffffffffffff021916908373ffffffffffffffffffffffffffffffffffffffff160217905550620006b56040805190810160405280600b81526020017f6574685f6d61696e6e657400000000000000000000000000000000000000000081525062000b6164010000000002620026c6176401000000009004565b6001905062000b5c565b6000620006f473c03a2615d5efaf5f49f60b7bb6583eaec212fdf1620005c56401000000000262001f30176401000000009004565b1115620007ad5773c03a2615d5efaf5f49f60b7bb6583eaec212fdf16000806101000a81548173ffffffffffffffffffffffffffffffffffffffff021916908373ffffffffffffffffffffffffffffffffffffffff160217905550620007a36040805190810160405280600c81526020017f6574685f726f707374656e33000000000000000000000000000000000000000081525062000b6164010000000002620026c6176401000000009004565b6001905062000b5c565b6000620007e273b7a07bcf2ba2f2703b24c0691b5278999c59ac7e620005c56401000000000262001f30176401000000009004565b11156200089b5773b7a07bcf2ba2f2703b24c0691b5278999c59ac7e6000806101000a81548173ffffffffffffffffffffffffffffffffffffffff021916908373ffffffffffffffffffffffffffffffffffffffff160217905550620008916040805190810160405280600981526020017f6574685f6b6f76616e000000000000000000000000000000000000000000000081525062000b6164010000000002620026c6176401000000009004565b6001905062000b5c565b6000620008d073146500cfd35b22e4a392fe0adc06de1a1368ed48620005c56401000000000262001f30176401000000009004565b1115620009895773146500cfd35b22e4a392fe0adc06de1a1368ed486000806101000a81548173ffffffffffffffffffffffffffffffffffffffff021916908373ffffffffffffffffffffffffffffffffffffffff1602179055506200097f6040805190810160405280600b81526020017f6574685f72696e6b65627900000000000000000000000000000000000000000081525062000b6164010000000002620026c6176401000000009004565b6001905062000b5c565b6000620009be736f485c8bf6fc43ea212e93bbf8ce046c7f1cb475620005c56401000000000262001f30176401000000009004565b111562000a2357736f485c8bf6fc43ea212e93bbf8ce046c7f1cb4756000806101000a81548173ffffffffffffffffffffffffffffffffffffffff021916908373ffffffffffffffffffffffffffffffffffffffff1602179055506001905062000b5c565b600062000a587320e12a1f859b3feae5fb2a0a32c18f5a65555bbf620005c56401000000000262001f30176401000000009004565b111562000abd577320e12a1f859b3feae5fb2a0a32c18f5a65555bbf6000806101000a81548173ffffffffffffffffffffffffffffffffffffffff021916908373ffffffffffffffffffffffffffffffffffffffff1602179055506001905062000b5c565b600062000af27351efaf4c8b3c9afbd5ab9f4bbc82784ab6ef8faa620005c56401000000000262001f30176401000000009004565b111562000b57577351efaf4c8b3c9afbd5ab9f4bbc82784ab6ef8faa6000806101000a81548173ffffffffffffffffffffffffffffffffffffffff021916908373ffffffffffffffffffffffffffffffffffffffff1602179055506001905062000b5c565b600090505b919050565b806002908051906020019062000b7992919062000b7d565b5050565b828054600181600116156101000203166002900490600052602060002090601f016020900481019282601f1062000bc057805160ff191683800117855562000bf1565b8280016001018555821562000bf1579182015b8281111562000bf057825182559160200191906001019062000bd3565b5b50905062000c00919062000c04565b5090565b62000c2991905b8082111562000c2557600081600090555060010162000c0b565b5090565b90565b612c948062000c3c6000396000f300606060405260043610610154576000357c0100000000000000000000000000000000000000000000000000000000900463ffffffff1680630d1fce421461016957806311610c2514610192578063116c6eab146101a7578063132ae5e9146101f457806316d190e31461021d57806317c5fed81461024657806327dc297e1461026f578063333e1a72146102d957806338bbfa50146103025780633f683b6a146103af5780633feb5f2b146103dc57806340a49a96146104515780634dc6b5231461047a578063518496b2146104a357806366aee0fc146104ff5780636be80de714610528578063724ae9d0146105755780639619367d1461059e578063a96a5a5b146105c7578063adc2c98a146105f0578063bc99cc3714610619578063cafb220214610642578063d4c80edf1461066b578063d667dcd714610694578063e0e3ba5a146106bd578063f8b2cb4f1461070a575b341561015f57600080fd5b610167610757565b005b341561017457600080fd5b61017c610b1e565b6040518082815260200191505060405180910390f35b341561019d57600080fd5b6101a5610757565b005b34156101b257600080fd5b6101de600480803573ffffffffffffffffffffffffffffffffffffffff16906020019091905050610b30565b6040518082815260200191505060405180910390f35b34156101ff57600080fd5b610207610ba0565b6040518082815260200191505060405180910390f35b341561022857600080fd5b610230610ba6565b6040518082815260200191505060405180910390f35b341561025157600080fd5b610259610bac565b6040518082815260200191505060405180910390f35b341561027a57600080fd5b6102d760048080356000191690602001909190803590602001908201803590602001908080601f01602080910402602001604051908101604052809392919081815260200183838082843782019150505050505091905050610bb2565b005b34156102e457600080fd5b6102ec610be4565b6040518082815260200191505060405180910390f35b341561030d57600080fd5b6103ad60048080356000191690602001909190803590602001908201803590602001908080601f0160208091040260200160405190810160405280939291908181526020018383808284378201915050505050509190803590602001908201803590602001908080601f01602080910402602001604051908101604052809392919081815260200183838082843782019150505050505091905050610bea565b005b34156103ba57600080fd5b6103c2610f51565b604051808215151515815260200191505060405180910390f35b34156103e757600080fd5b6103fd6004808035906020019091905050610f64565b604051808473ffffffffffffffffffffffffffffffffffffffff1673ffffffffffffffffffffffffffffffffffffffff16815260200183815260200182151515158152602001935050505060405180910390f35b341561045c57600080fd5b610464610fbb565b6040518082815260200191505060405180910390f35b341561048557600080fd5b61048d611071565b6040518082815260200191505060405180910390f35b34156104ae57600080fd5b6104b6611077565b604051808373ffffffffffffffffffffffffffffffffffffffff1673ffffffffffffffffffffffffffffffffffffffff1681526020018281526020019250505060405180910390f35b341561050a57600080fd5b6105126110a9565b6040518082815260200191505060405180910390f35b341561053357600080fd5b61055f600480803573ffffffffffffffffffffffffffffffffffffffff169060200190919050506110af565b6040518082815260200191505060405180910390f35b341561058057600080fd5b6105886110c7565b6040518082815260200191505060405180910390f35b34156105a957600080fd5b6105b161112f565b6040518082815260200191505060405180910390f35b34156105d257600080fd5b6105da611135565b6040518082815260200191505060405180910390f35b34156105fb57600080fd5b61060361113b565b6040518082815260200191505060405180910390f35b341561062457600080fd5b61062c611141565b6040518082815260200191505060405180910390f35b341561064d57600080fd5b610655611147565b6040518082815260200191505060405180910390f35b341561067657600080fd5b61067e61114d565b6040518082815260200191505060405180910390f35b341561069f57600080fd5b6106a7611153565b6040518082815260200191505060405180910390f35b34156106c857600080fd5b6106f4600480803573ffffffffffffffffffffffffffffffffffffffff16906020019091905050611159565b6040518082815260200191505060405180910390f35b341561071557600080fd5b610741600480803573ffffffffffffffffffffffffffffffffffffffff169060200190919050506111c9565b6040518082815260200191505060405180910390f35b6000806000601360149054906101000a900460ff161561077657600080fd5b600034141561078457600080fd5b6000809054906101000a900473ffffffffffffffffffffffffffffffffffffffff1673ffffffffffffffffffffffffffffffffffffffff166338cc48316000604051602001526040518163ffffffff167c0100000000000000000000000000000000000000000000000000000000028152600401602060405180830381600087803b151561081157600080fd5b6102c65a03f1151561082257600080fd5b5050506040518051905073ffffffffffffffffffffffffffffffffffffffff16632ef3accc600d546201e848016000604051602001526040518263ffffffff167c01000000000000000000000000000000000000000000000000000000000281526004018080602001838152602001828103825260038152602001807f55524c000000000000000000000000000000000000000000000000000000000081525060200192505050602060405180830381600087803b15156108e257600080fd5b6102c65a03f115156108f357600080fd5b505050604051805190509250823403915061271061090f610b1e565b6007540281151561091c57fe5b046005546005546006546127100303840281151561093657fe5b041115801561094757506008548210155b15610b1457610a326040805190810160405280600381526020017f55524c0000000000000000000000000000000000000000000000000000000000815250608060405190810160405280604381526020017f6a736f6e2868747470733a2f2f6170692e72616e646f6d2e6f72672f6a736f6e81526020017f2d7270632f312f696e766f6b65292e726573756c742e72616e646f6d2e64617481526020017f612e3000000000000000000000000000000000000000000000000000000000008152506101606040519081016040528061012c8152602001612b3d61012c9139600d546201e8480161123c565b90506060604051908101604052803373ffffffffffffffffffffffffffffffffffffffff168152602001838152602001600081525060166000836000191660001916815260200190815260200160002060008201518160000160006101000a81548173ffffffffffffffffffffffffffffffffffffffff021916908373ffffffffffffffffffffffffffffffffffffffff160217905550602082015181600101556040820151816002015590505060178054806001018281610af491906126e0565b916000526020600020900160008390919091509060001916905550610b19565b600080fd5b505050565b6000601a546019546011540103905090565b6000601154601954600f6000600e60008773ffffffffffffffffffffffffffffffffffffffff1673ffffffffffffffffffffffffffffffffffffffff1681526020019081526020016000205481526020019081526020016000206001015402811515610b9857fe5b049050919050565b60105481565b60075481565b600c5481565b610be082826000604051805910610bc65750595b9080825280601f01601f1916602001820160405250610bea565b5050565b601a5481565b600080610bf56117fa565b73ffffffffffffffffffffffffffffffffffffffff163373ffffffffffffffffffffffffffffffffffffffff16141515610c2e57600080fd5b8460006016600083600019166000191681526020019081526020016000209050600081600201541115610c6057600080fd5b86866000806016600085600019166000191681526020019081526020016000209150610c8b83611b10565b90506001811080610c9d575061271081115b8015610cad575060008260020154145b15610d0f576201869f60166000866000191660001916815260200190815260200160002060020181905550610d0a8260000160009054906101000a900473ffffffffffffffffffffffffffffffffffffffff168360010154611b24565b610f44565b8a60006016600083600019166000191681526020019081526020016000209050612710610d3a610b1e565b60075402811515610d4757fe5b046005546005546006546127100303836001015402811515610d6557fe5b04111515610ee357601660008e600019166000191681526020019081526020016000209950610d938c611b10565b985088601660008f6000191660001916815260200190815260200160002060020181905550610e388a606060405190810160405290816000820160009054906101000a900473ffffffffffffffffffffffffffffffffffffffff1673ffffffffffffffffffffffffffffffffffffffff1673ffffffffffffffffffffffffffffffffffffffff168152602001600182015481526020016002820154815250508a611d59565b610eb88a606060405190810160405290816000820160009054906101000a900473ffffffffffffffffffffffffffffffffffffffff1673ffffffffffffffffffffffffffffffffffffffff1673ffffffffffffffffffffffffffffffffffffffff168152602001600182015481526020016002820154815250508a611e27565b8960010154601860008282540192505081905550601b60006101000a81549060ff0219169055610f40565b6201869f60166000846000191660001916815260200190815260200160002060020181905550610f3b8160000160009054906101000a900473ffffffffffffffffffffffffffffffffffffffff168260010154611b24565b610f41565b5b50505b5050505050505050505050565b601360149054906101000a900460ff1681565b600f6020528060005260406000206000915090508060000160009054906101000a900473ffffffffffffffffffffffffffffffffffffffff16908060010154908060020160009054906101000a900460ff16905083565b600080600060019150600190505b6010548111151561106957611013600f600084815260200190815260200160002060000160009054906101000a900473ffffffffffffffffffffffffffffffffffffffff166111c9565b611052600f600084815260200190815260200160002060000160009054906101000a900473ffffffffffffffffffffffffffffffffffffffff166111c9565b101561105c578091505b8080600101915050610fc9565b819250505090565b600b5481565b60148060000160009054906101000a900473ffffffffffffffffffffffffffffffffffffffff16908060010154905082565b60195481565b600e6020528060005260406000206000915090505481565b6000806009546010541415611126576110de610fbb565b905061111f600f600083815260200190815260200160002060000160009054906101000a900473ffffffffffffffffffffffffffffffffffffffff166111c9565b915061112b565b600091505b5090565b60085481565b60055481565b60065481565b60095481565b60115481565b60185481565b600a5481565b6000601154601a54600f6000600e60008773ffffffffffffffffffffffffffffffffffffffff1673ffffffffffffffffffffffffffffffffffffffff16815260200190815260200160002054815260200190815260200160002060010154028115156111c157fe5b049050919050565b60006111d482611159565b6111dd83610b30565b600f6000600e60008773ffffffffffffffffffffffffffffffffffffffff1673ffffffffffffffffffffffffffffffffffffffff1681526020019081526020016000205481526020019081526020016000206001015401039050919050565b60008060008060009054906101000a900473ffffffffffffffffffffffffffffffffffffffff1673ffffffffffffffffffffffffffffffffffffffff1614806112ae575060006112ac6000809054906101000a900473ffffffffffffffffffffffffffffffffffffffff16611f30565b145b156112bf576112bd6000611f3b565b505b6000809054906101000a900473ffffffffffffffffffffffffffffffffffffffff1673ffffffffffffffffffffffffffffffffffffffff166338cc48316000604051602001526040518163ffffffff167c0100000000000000000000000000000000000000000000000000000000028152600401602060405180830381600087803b151561134c57600080fd5b6102c65a03f1151561135d57600080fd5b5050506040518051905073ffffffffffffffffffffffffffffffffffffffff16600160009054906101000a900473ffffffffffffffffffffffffffffffffffffffff1673ffffffffffffffffffffffffffffffffffffffff161415156114a6576000809054906101000a900473ffffffffffffffffffffffffffffffffffffffff1673ffffffffffffffffffffffffffffffffffffffff166338cc48316000604051602001526040518163ffffffff167c0100000000000000000000000000000000000000000000000000000000028152600401602060405180830381600087803b151561144a57600080fd5b6102c65a03f1151561145b57600080fd5b50505060405180519050600160006101000a81548173ffffffffffffffffffffffffffffffffffffffff021916908373ffffffffffffffffffffffffffffffffffffffff1602179055505b600160009054906101000a900473ffffffffffffffffffffffffffffffffffffffff1673ffffffffffffffffffffffffffffffffffffffff16632ef3accc87856000604051602001526040518363ffffffff167c01000000000000000000000000000000000000000000000000000000000281526004018080602001838152602001828103825284818151815260200191508051906020019080838360005b83811015611560578082015181840152602081019050611545565b50505050905090810190601f16801561158d5780820380516001836020036101000a031916815260200191505b509350505050602060405180830381600087803b15156115ac57600080fd5b6102c65a03f115156115bd57600080fd5b505050604051805190509050823a02670de0b6b3a7640000018111156115e957600060010291506117f1565b600160009054906101000a900473ffffffffffffffffffffffffffffffffffffffff1673ffffffffffffffffffffffffffffffffffffffff166385dee34c826000898989896000604051602001526040518763ffffffff167c010000000000000000000000000000000000000000000000000000000002815260040180868152602001806020018060200180602001858152602001848103845288818151815260200191508051906020019080838360005b838110156116b657808201518184015260208101905061169b565b50505050905090810190601f1680156116e35780820380516001836020036101000a031916815260200191505b50848103835287818151815260200191508051906020019080838360005b8381101561171c578082015181840152602081019050611701565b50505050905090810190601f1680156117495780820380516001836020036101000a031916815260200191505b50848103825286818151815260200191508051906020019080838360005b83811015611782578082015181840152602081019050611767565b50505050905090810190601f1680156117af5780820380516001836020036101000a031916815260200191505b50985050505050505050506020604051808303818588803b15156117d257600080fd5b6125ee5a03f115156117e357600080fd5b505050506040518051905091505b50949350505050565b6000806000809054906101000a900473ffffffffffffffffffffffffffffffffffffffff1673ffffffffffffffffffffffffffffffffffffffff16148061186a575060006118686000809054906101000a900473ffffffffffffffffffffffffffffffffffffffff16611f30565b145b1561187b576118796000611f3b565b505b6000809054906101000a900473ffffffffffffffffffffffffffffffffffffffff1673ffffffffffffffffffffffffffffffffffffffff166338cc48316000604051602001526040518163ffffffff167c0100000000000000000000000000000000000000000000000000000000028152600401602060405180830381600087803b151561190857600080fd5b6102c65a03f1151561191957600080fd5b5050506040518051905073ffffffffffffffffffffffffffffffffffffffff16600160009054906101000a900473ffffffffffffffffffffffffffffffffffffffff1673ffffffffffffffffffffffffffffffffffffffff16141515611a62576000809054906101000a900473ffffffffffffffffffffffffffffffffffffffff1673ffffffffffffffffffffffffffffffffffffffff166338cc48316000604051602001526040518163ffffffff167c0100000000000000000000000000000000000000000000000000000000028152600401602060405180830381600087803b1515611a0657600080fd5b6102c65a03f11515611a1757600080fd5b50505060405180519050600160006101000a81548173ffffffffffffffffffffffffffffffffffffffff021916908373ffffffffffffffffffffffffffffffffffffffff1602179055505b600160009054906101000a900473ffffffffffffffffffffffffffffffffffffffff1673ffffffffffffffffffffffffffffffffffffffff1663c281d19e6000604051602001526040518163ffffffff167c0100000000000000000000000000000000000000000000000000000000028152600401602060405180830381600087803b1515611af057600080fd5b6102c65a03f11515611b0157600080fd5b50505060405180519050905090565b6000611b1d8260006123cc565b9050919050565b803073ffffffffffffffffffffffffffffffffffffffff16311015611b74577f9bc0f7b8676ac8a3d913fc962a472bc40103acaa27e5477c1eadfbb7d4897a0460405160405180910390a1611d55565b8173ffffffffffffffffffffffffffffffffffffffff16600d5482604051600060405180830381858888f193505050501515611d54577f3d14263aec0db87097e504ee7aca5316e879b2cc7f3b29f9c62d40e9bae04cee8282604051808373ffffffffffffffffffffffffffffffffffffffff1673ffffffffffffffffffffffffffffffffffffffff1681526020018281526020019250505060405180910390a1601360009054906101000a900473ffffffffffffffffffffffffffffffffffffffff1673ffffffffffffffffffffffffffffffffffffffff168273ffffffffffffffffffffffffffffffffffffffff16141515611d5357601360009054906101000a900473ffffffffffffffffffffffffffffffffffffffff1673ffffffffffffffffffffffffffffffffffffffff16600d5482604051600060405180830381858888f193505050501515611d52577f3d14263aec0db87097e504ee7aca5316e879b2cc7f3b29f9c62d40e9bae04cee601360009054906101000a900473ffffffffffffffffffffffffffffffffffffffff1682604051808373ffffffffffffffffffffffffffffffffffffffff1673ffffffffffffffffffffffffffffffffffffffff1681526020018281526020019250505060405180910390a15b5b5b5b5050565b600081600554600182031015611e215760055460065461271003856020015102811515611d8257fe5b0491507f8f25eec129b997ba51175c8f2583cafbfc0c076ef19e2c455869730f969ec44d84600001518484604051808473ffffffffffffffffffffffffffffffffffffffff1673ffffffffffffffffffffffffffffffffffffffff168152602001838152602001828152602001935050505060405180910390a1611e0a846000015183611b24565b83602001518203601a600082825401925050819055505b50505050565b60008160055460018203101515611f2a577fcb9c7189736051e86837ee4847c751bad47c86cb506933875ff8fabf9eeda008846000015184604051808373ffffffffffffffffffffffffffffffffffffffff1673ffffffffffffffffffffffffffffffffffffffff1681526020018281526020019250505060405180910390a1611eb684600001516001611b24565b612710600a5461271003600186602001510302811515611ed257fe5b04601960008282540192505081905550612710600a54600186602001510302811515611efa57fe5b049150611f29601360009054906101000a900473ffffffffffffffffffffffffffffffffffffffff1683611b24565b5b50505050565b6000813b9050919050565b600080611f5b731d3b2638a7cc9f2cb3d298a3da7a90b67e5506ed611f30565b1115611ffc57731d3b2638a7cc9f2cb3d298a3da7a90b67e5506ed6000806101000a81548173ffffffffffffffffffffffffffffffffffffffff021916908373ffffffffffffffffffffffffffffffffffffffff160217905550611ff36040805190810160405280600b81526020017f6574685f6d61696e6e65740000000000000000000000000000000000000000008152506126c6565b600190506123c7565b600061201b73c03a2615d5efaf5f49f60b7bb6583eaec212fdf1611f30565b11156120bc5773c03a2615d5efaf5f49f60b7bb6583eaec212fdf16000806101000a81548173ffffffffffffffffffffffffffffffffffffffff021916908373ffffffffffffffffffffffffffffffffffffffff1602179055506120b36040805190810160405280600c81526020017f6574685f726f707374656e3300000000000000000000000000000000000000008152506126c6565b600190506123c7565b60006120db73b7a07bcf2ba2f2703b24c0691b5278999c59ac7e611f30565b111561217c5773b7a07bcf2ba2f2703b24c0691b5278999c59ac7e6000806101000a81548173ffffffffffffffffffffffffffffffffffffffff021916908373ffffffffffffffffffffffffffffffffffffffff1602179055506121736040805190810160405280600981526020017f6574685f6b6f76616e00000000000000000000000000000000000000000000008152506126c6565b600190506123c7565b600061219b73146500cfd35b22e4a392fe0adc06de1a1368ed48611f30565b111561223c5773146500cfd35b22e4a392fe0adc06de1a1368ed486000806101000a81548173ffffffffffffffffffffffffffffffffffffffff021916908373ffffffffffffffffffffffffffffffffffffffff1602179055506122336040805190810160405280600b81526020017f6574685f72696e6b6562790000000000000000000000000000000000000000008152506126c6565b600190506123c7565b600061225b736f485c8bf6fc43ea212e93bbf8ce046c7f1cb475611f30565b11156122be57736f485c8bf6fc43ea212e93bbf8ce046c7f1cb4756000806101000a81548173ffffffffffffffffffffffffffffffffffffffff021916908373ffffffffffffffffffffffffffffffffffffffff160217905550600190506123c7565b60006122dd7320e12a1f859b3feae5fb2a0a32c18f5a65555bbf611f30565b1115612340577320e12a1f859b3feae5fb2a0a32c18f5a65555bbf6000806101000a81548173ffffffffffffffffffffffffffffffffffffffff021916908373ffffffffffffffffffffffffffffffffffffffff160217905550600190506123c7565b600061235f7351efaf4c8b3c9afbd5ab9f4bbc82784ab6ef8faa611f30565b11156123c2577351efaf4c8b3c9afbd5ab9f4bbc82784ab6ef8faa6000806101000a81548173ffffffffffffffffffffffffffffffffffffffff021916908373ffffffffffffffffffffffffffffffffffffffff160217905550600190506123c7565b600090505b919050565b60006123d661270c565b60008060008693506000925060009150600090505b83518110156126a75760307f010000000000000000000000000000000000000000000000000000000000000002848281518110151561242657fe5b9060200101517f010000000000000000000000000000000000000000000000000000000000000090047f0100000000000000000000000000000000000000000000000000000000000000027effffffffffffffffffffffffffffffffffffffffffffffffffffffffffffff19161015801561253e575060397f01000000000000000000000000000000000000000000000000000000000000000284828151811015156124ce57fe5b9060200101517f010000000000000000000000000000000000000000000000000000000000000090047f0100000000000000000000000000000000000000000000000000000000000000027effffffffffffffffffffffffffffffffffffffffffffffffffffffffffffff191611155b156125ef578115612561576000861415612557576126a7565b8580600190039650505b600a830292506030848281518110151561257757fe5b9060200101517f010000000000000000000000000000000000000000000000000000000000000090047f0100000000000000000000000000000000000000000000000000000000000000027f01000000000000000000000000000000000000000000000000000000000000009004038301925061269a565b602e7f010000000000000000000000000000000000000000000000000000000000000002848281518110151561262157fe5b9060200101517f010000000000000000000000000000000000000000000000000000000000000090047f0100000000000000000000000000000000000000000000000000000000000000027effffffffffffffffffffffffffffffffffffffffffffffffffffffffffffff1916141561269957600191505b5b80806001019150506123eb565b60008611156126b95785600a0a830292505b8294505050505092915050565b80600290805190602001906126dc929190612720565b5050565b8154818355818115116127075781836000526020600020918201910161270691906127a0565b5b505050565b602060405190810160405280600081525090565b828054600181600116156101000203166002900490600052602060002090601f016020900481019282601f1061276157805160ff191683800117855561278f565b8280016001018555821561278f579182015b8281111561278e578251825591602001919060010190612773565b5b50905061279c91906127c5565b5090565b6127c291905b808211156127be5760008160009055506001016127a6565b5090565b90565b6127e791905b808211156127e35760008160009055506001016127cb565b5090565b90565b60008060009054906101000a900473ffffffffffffffffffffffffffffffffffffffff1673ffffffffffffffffffffffffffffffffffffffff161480612859575060006128576000809054906101000a900473ffffffffffffffffffffffffffffffffffffffff16611f30565b145b1561286a576128686000611f3b565b505b6000809054906101000a900473ffffffffffffffffffffffffffffffffffffffff1673ffffffffffffffffffffffffffffffffffffffff166338cc48316000604051602001526040518163ffffffff167c0100000000000000000000000000000000000000000000000000000000028152600401602060405180830381600087803b15156128f757600080fd5b6102c65a03f1151561290857600080fd5b5050506040518051905073ffffffffffffffffffffffffffffffffffffffff16600160009054906101000a900473ffffffffffffffffffffffffffffffffffffffff1673ffffffffffffffffffffffffffffffffffffffff16141515612a51576000809054906101000a900473ffffffffffffffffffffffffffffffffffffffff1673ffffffffffffffffffffffffffffffffffffffff166338cc48316000604051602001526040518163ffffffff167c0100000000000000000000000000000000000000000000000000000000028152600401602060405180830381600087803b15156129f557600080fd5b6102c65a03f11515612a0657600080fd5b50505060405180519050600160006101000a81548173ffffffffffffffffffffffffffffffffffffffff021916908373ffffffffffffffffffffffffffffffffffffffff1602179055505b600160009054906101000a900473ffffffffffffffffffffffffffffffffffffffff1673ffffffffffffffffffffffffffffffffffffffff1663688dcfd7826040518263ffffffff167c010000000000000000000000000000000000000000000000000000000002815260040180827effffffffffffffffffffffffffffffffffffffffffffffffffffffffffffff19167effffffffffffffffffffffffffffffffffffffffffffffffffffffffffffff19168152602001915050600060405180830381600087803b1515612b2557600080fd5b6102c65a03f11515612b3657600080fd5b505050505600424258315043513931333438333977547a31304f57785843615a61476b39327946365445533878412b38494337784e426c4a7135414c3075573372657637496f41704135444d466d43664b47696b6a6e4e624e676c4b4b76776a454e5950423854424a4e397444676463594e7864576e735941524b4d716d6a724a4b596242416977732b55553648724a58555769724f2b644253534a626d6a49672b39766d426a5371384b766569427a53476d75516875372f6853673572537353502f722b4d68522f51354543724f48692b436b502f7164535554412f516843436a647a46752b3774334873374e553334612b6c374a6476446c764438686f4e78794b6f6f4d44594e625541382f65466d50763264353338464e364b4a51702b524b723477345674414d4864656a724c4d3da165627a7a72305820d34f1c27b5b528bb79789e301592f06960d0721526c8f57f60b60e91bf68b6a40029",
  "source": "pragma solidity ^0.4.17;\nimport \"./usingOraclize.sol\";\n\ncontract Dice is usingOraclize {\n\n    uint public pwin = 5000; //probability of winning (10000 = 100%)\n    uint public edge = 200; //edge percentage (10000 = 100%)\n    uint public maxWin = 100; //max win (before edge is taken) as percentage of bankroll (10000 = 100%)\n    uint public minBet = 1 finney;\n    uint public maxInvestors = 5; //maximum number of investors\n    uint public houseEdge = 50; //edge percentage (10000 = 100%)\n    uint public divestFee = 50; //divest fee percentage (10000 = 100%)\n    uint public emergencyWithdrawalRatio = 90; //ratio percentage (100 = 100%)\n\n    uint safeGas = 25000;\n    uint constant ORACLIZE_GAS_LIMIT = 125000;\n    uint constant INVALID_BET_MARKER = 99999;\n    uint constant EMERGENCY_TIMEOUT = 7 days;\n\n    struct Investor {\n        address investorAddress;\n        uint amountInvested;\n        bool votedForEmergencyWithdrawal;\n    }\n\n    struct Bet {\n        address playerAddress;\n        uint amountBetted;\n        uint numberRolled;\n    }\n\n    struct WithdrawalProposal {\n        address toAddress;\n        uint atTime;\n    }\n\n    //Starting at 1\n    mapping(address => uint) public investorIDs;\n    mapping(uint => Investor) public investors;\n    uint public numInvestors = 0;\n\n    uint public invested = 0;\n\n    address owner;\n    address houseAddress;\n    bool public isStopped;\n\n    WithdrawalProposal public proposedWithdrawal;\n\n    mapping (bytes32 => Bet) bets;\n    bytes32[] betsKeys;\n\n    uint public amountWagered = 0;\n    uint public investorsProfit = 0;\n    uint public investorsLoses = 0;\n    bool profitDistributed;\n\n    event BetWon(address playerAddress, uint numberRolled, uint amountWon);\n    event BetLost(address playerAddress, uint numberRolled);\n    event EmergencyWithdrawalProposed();\n    event EmergencyWithdrawalFailed(address withdrawalAddress);\n    event EmergencyWithdrawalSucceeded(address withdrawalAddress, uint amountWithdrawn);\n    event FailedSend(address receiver, uint amount);\n    event ValueIsTooBig();\n\n    //BG - This is the constructor whose code is\n    //BG - run only when the contract is created.\n    function Dice(uint pwinInitial,\n                  uint edgeInitial,\n                  uint maxWinInitial,\n                  uint minBetInitial,\n                  uint maxInvestorsInitial,\n                  uint houseEdgeInitial,\n                  uint divestFeeInitial,\n                  uint emergencyWithdrawalRatioInitial\n                  ) {\n\n        OAR = OraclizeAddrResolverI(0x6f485C8BF6fc43eA212E93BBF8ce046C7f1cb475);\n        oraclize_setProof(proofType_TLSNotary | proofStorage_IPFS);\n\n        pwin = pwinInitial;\n        edge = edgeInitial;\n        maxWin = maxWinInitial;\n        minBet = minBetInitial;\n        maxInvestors = maxInvestorsInitial;\n        houseEdge = houseEdgeInitial;\n        divestFee = divestFeeInitial;\n        emergencyWithdrawalRatio = emergencyWithdrawalRatioInitial;\n        owner = msg.sender;\n        houseAddress = msg.sender;\n    }\n\n    //SECTION I: MODIFIERS AND HELPER FUNCTIONS\n\n    //MODIFIERS\n\n    modifier onlyIfNotStopped {\n        if (isStopped) throw;\n        _;\n    }\n\n    modifier onlyOraclize {\n        if (msg.sender != oraclize_cbAddress()) throw;\n        _;\n    }\n\n    modifier onlyMoreThanZero {\n        if (msg.value == 0) throw;\n        _;\n    }\n\n    modifier onlyIfNotProcessed(bytes32 myid) {\n        Bet thisBet = bets[myid];\n        if (thisBet.numberRolled > 0) throw;\n        _;\n    }\n\n    modifier onlyIfValidRoll(bytes32 myid, string result) {\n        Bet thisBet = bets[myid];\n        uint numberRolled = parseInt(result);\n        if ((numberRolled < 1 || numberRolled > 10000) && thisBet.numberRolled == 0) {\n            bets[myid].numberRolled = INVALID_BET_MARKER;\n            safeSend(thisBet.playerAddress, thisBet.amountBetted);\n            return;\n        }\n        _;\n    }\n\n\n    modifier onlyIfBetSizeIsStillCorrect(bytes32 myid) {\n        Bet thisBet = bets[myid];\n        if ((((thisBet.amountBetted * ((10000 - edge) - pwin)) / pwin ) <= (maxWin * getBankroll()) / 10000)) {\n            _;\n        }\n        else {\n            bets[myid].numberRolled = INVALID_BET_MARKER;\n            safeSend(thisBet.playerAddress, thisBet.amountBetted);\n            return;\n        }\n    }\n\n    modifier onlyWinningBets(uint numberRolled) {\n        if (numberRolled - 1 < pwin) {\n            _;\n        }\n    }\n\n    modifier onlyLosingBets(uint numberRolled) {\n        if (numberRolled - 1 >= pwin) {\n            _;\n        }\n    }\n\n    //CONSTANT HELPER FUNCTIONS\n\n    function getBankroll() constant returns(uint) {\n        return invested + investorsProfit - investorsLoses;\n    }\n\n    function getMinInvestment() constant returns(uint) {\n        if (numInvestors == maxInvestors) {\n            uint investorID = searchSmallestInvestor();\n            return getBalance(investors[investorID].investorAddress);\n        }\n        else {\n            return 0;\n        }\n    }\n\n    function getLosesShare(address currentInvestor) constant returns (uint) {\n        return investors[investorIDs[currentInvestor]].amountInvested * (investorsLoses) / invested;\n    }\n\n    function getProfitShare(address currentInvestor) constant returns (uint) {\n        return investors[investorIDs[currentInvestor]].amountInvested * (investorsProfit) / invested;\n    }\n\n    function getBalance(address currentInvestor) constant returns (uint) {\n        return investors[investorIDs[currentInvestor]].amountInvested + getProfitShare(currentInvestor) - getLosesShare(currentInvestor);\n    }\n\n    function searchSmallestInvestor() constant returns(uint) {\n        uint investorID = 1;\n        for (uint i = 1; i <= numInvestors; i++) {\n            if (getBalance(investors[i].investorAddress) < getBalance(investors[investorID].investorAddress)) {\n                investorID = i;\n            }\n        }\n\n        return investorID;\n    }\n\n    // PRIVATE HELPERS FUNCTION\n\n    function safeSend(address addr, uint value) private {\n        if (this.balance < value) {\n            ValueIsTooBig();\n            return;\n        }\n\n        if (!(addr.call.gas(safeGas).value(value)())) {\n            FailedSend(addr, value);\n            if (addr != houseAddress) {\n                //Forward to house address all change\n                if (!(houseAddress.call.gas(safeGas).value(value)())) FailedSend(houseAddress, value);\n            }\n        }\n    }\n\n    // SECTION II: BET & BET PROCESSING\n\n    function() {\n        bet();\n    }\n\n    function bet() onlyIfNotStopped onlyMoreThanZero {\n        uint oraclizeFee = OraclizeI(OAR.getAddress()).getPrice(\"URL\", ORACLIZE_GAS_LIMIT + safeGas);\n        uint betValue = msg.value - oraclizeFee;\n        if ((((betValue * ((10000 - edge) - pwin)) / pwin ) <= (maxWin * getBankroll()) / 10000) && (betValue >= minBet)) {\n            // encrypted arg: '\\n{\"jsonrpc\":2.0,\"method\":\"generateSignedIntegers\",\"params\":{\"apiKey\":\"YOUR_API_KEY\",\"n\":1,\"min\":1,\"max\":10000},\"id\":1}'\n            bytes32 myid = oraclize_query(\"URL\", \"json(https://api.random.org/json-rpc/1/invoke).result.random.data.0\",\"BBX1PCQ9134839wTz10OWxXCaZaGk92yF6TES8xA+8IC7xNBlJq5AL0uW3rev7IoApA5DMFmCfKGikjnNbNglKKvwjENYPB8TBJN9tDgdcYNxdWnsYARKMqmjrJKYbBAiws+UU6HrJXUWirO+dBSSJbmjIg+9vmBjSq8KveiBzSGmuQhu7/hSg5rSsSP/r+MhR/Q5ECrOHi+CkP/qdSUTA/QhCCjdzFu+7t3Hs7NU34a+l7JdvDlvD8hoNxyKooMDYNbUA8/eFmPv2d538FN6KJQp+RKr4w4VtAMHdejrLM=\", ORACLIZE_GAS_LIMIT + safeGas);\n            bets[myid] = Bet(msg.sender, betValue, 0);\n            betsKeys.push(myid);\n        }\n        else {\n            throw;\n        }\n    }\n\n    function __callback (bytes32 myid, string result, bytes proof)\n        onlyOraclize\n        onlyIfNotProcessed(myid)\n        onlyIfValidRoll(myid, result)\n        onlyIfBetSizeIsStillCorrect(myid)  {\n\n        Bet thisBet = bets[myid];\n        uint numberRolled = parseInt(result);\n        bets[myid].numberRolled = numberRolled;\n        isWinningBet(thisBet, numberRolled);\n        isLosingBet(thisBet, numberRolled);\n        amountWagered += thisBet.amountBetted;\n        delete profitDistributed;\n    }\n\n    function isWinningBet(Bet thisBet, uint numberRolled) private onlyWinningBets(numberRolled) {\n        uint winAmount = (thisBet.amountBetted * (10000 - edge)) / pwin;\n        BetWon(thisBet.playerAddress, numberRolled, winAmount);\n        safeSend(thisBet.playerAddress, winAmount);\n        investorsLoses += (winAmount - thisBet.amountBetted);\n    }\n\n    function isLosingBet(Bet thisBet, uint numberRolled) private onlyLosingBets(numberRolled) {\n        BetLost(thisBet.playerAddress, numberRolled);\n        safeSend(thisBet.playerAddress, 1);\n        investorsProfit += (thisBet.amountBetted - 1)*(10000 - houseEdge)/10000;\n        uint houseProfit = (thisBet.amountBetted - 1)*(houseEdge)/10000;\n        safeSend(houseAddress, houseProfit);\n    }\n\n\n}\n",
  "sourcePath": "/Users/bgaughran/IdeaProjects/ppbDice/contracts/dice.sol",
  "compiler": {
    "name": "solc",
    "version": "0.4.18+commit.9cf6e910.Emscripten.clang"
  },
  "schemaVersion": "1.0.1",
  "updatedAt": "2018-02-06T23:53:08.652Z"
}